{
  "address": "0x31CF42feE59E96a98985046C1bFAcBBFC80FFDfc",
  "abi": [
    {
      "inputs": [
        {
          "internalType": "uint256",
          "name": "_startBlock",
          "type": "uint256"
        },
        {
          "internalType": "uint256",
          "name": "_rewardEndBlock",
          "type": "uint256"
        },
        {
          "internalType": "uint256",
          "name": "_ruinPerBlock",
          "type": "uint256"
        },
        {
          "internalType": "contract Ruin",
          "name": "_ruinToken",
          "type": "address"
        },
        {
          "internalType": "address",
          "name": "_dev",
          "type": "address"
        },
        {
          "internalType": "address",
          "name": "_penaltyReceiver",
          "type": "address"
        },
        {
          "internalType": "contract RuinNFT",
          "name": "_ruinNFT",
          "type": "address"
        }
      ],
      "stateMutability": "nonpayable",
      "type": "constructor"
    },
    {
      "anonymous": false,
      "inputs": [
        {
          "indexed": false,
          "internalType": "address",
          "name": "account",
          "type": "address"
        },
        {
          "indexed": false,
          "internalType": "bytes32",
          "name": "role",
          "type": "bytes32"
        }
      ],
      "name": "GrantRole",
      "type": "event"
    },
    {
      "anonymous": false,
      "inputs": [
        {
          "indexed": false,
          "internalType": "uint256",
          "name": "poolId",
          "type": "uint256"
        },
        {
          "indexed": false,
          "internalType": "uint256",
          "name": "newAllocPoint",
          "type": "uint256"
        }
      ],
      "name": "PoolAllocPointChanged",
      "type": "event"
    },
    {
      "anonymous": false,
      "inputs": [
        {
          "indexed": false,
          "internalType": "address",
          "name": "lpToken",
          "type": "address"
        },
        {
          "indexed": false,
          "internalType": "uint256",
          "name": "allocPoint",
          "type": "uint256"
        },
        {
          "indexed": false,
          "internalType": "uint256",
          "name": "accRuinPerShare",
          "type": "uint256"
        },
        {
          "indexed": false,
          "internalType": "uint256",
          "name": "lastRewardBlock",
          "type": "uint256"
        }
      ],
      "name": "PoolCreated",
      "type": "event"
    },
    {
      "anonymous": false,
      "inputs": [
        {
          "indexed": false,
          "internalType": "uint256",
          "name": "poolId",
          "type": "uint256"
        },
        {
          "indexed": false,
          "internalType": "uint256",
          "name": "amount",
          "type": "uint256"
        }
      ],
      "name": "PoolDeposited",
      "type": "event"
    },
    {
      "anonymous": false,
      "inputs": [
        {
          "indexed": false,
          "internalType": "uint256",
          "name": "poolId",
          "type": "uint256"
        },
        {
          "indexed": false,
          "internalType": "uint256",
          "name": "amount",
          "type": "uint256"
        },
        {
          "indexed": false,
          "internalType": "address",
          "name": "receiver",
          "type": "address"
        }
      ],
      "name": "PoolEmergencyWithdraw",
      "type": "event"
    },
    {
      "anonymous": false,
      "inputs": [
        {
          "indexed": false,
          "internalType": "bool",
          "name": "status",
          "type": "bool"
        }
      ],
      "name": "PoolEmergencyWithdrawStatus",
      "type": "event"
    },
    {
      "anonymous": false,
      "inputs": [
        {
          "indexed": false,
          "internalType": "uint256",
          "name": "poolId",
          "type": "uint256"
        },
        {
          "indexed": false,
          "internalType": "uint256",
          "name": "amount",
          "type": "uint256"
        },
        {
          "indexed": false,
          "internalType": "address",
          "name": "receiver",
          "type": "address"
        }
      ],
      "name": "PoolHarvested",
      "type": "event"
    },
    {
      "anonymous": false,
      "inputs": [
        {
          "indexed": false,
          "internalType": "uint256",
          "name": "newInterest",
          "type": "uint256"
        }
      ],
      "name": "PoolInterestChanged",
      "type": "event"
    },
    {
      "anonymous": false,
      "inputs": [
        {
          "indexed": false,
          "internalType": "address",
          "name": "newPenaltyReceiver",
          "type": "address"
        }
      ],
      "name": "PoolPenaltyReceiverChanged",
      "type": "event"
    },
    {
      "anonymous": false,
      "inputs": [
        {
          "indexed": false,
          "internalType": "uint256",
          "name": "poolId",
          "type": "uint256"
        },
        {
          "indexed": false,
          "internalType": "uint256",
          "name": "amount",
          "type": "uint256"
        }
      ],
      "name": "PoolWithdraw",
      "type": "event"
    },
    {
      "anonymous": false,
      "inputs": [
        {
          "indexed": false,
          "internalType": "address",
          "name": "account",
          "type": "address"
        },
        {
          "indexed": false,
          "internalType": "bytes32",
          "name": "role",
          "type": "bytes32"
        }
      ],
      "name": "RenounceRole",
      "type": "event"
    },
    {
      "anonymous": false,
      "inputs": [
        {
          "indexed": false,
          "internalType": "address",
          "name": "account",
          "type": "address"
        },
        {
          "indexed": false,
          "internalType": "bytes32",
          "name": "role",
          "type": "bytes32"
        }
      ],
      "name": "RevokeRole",
      "type": "event"
    },
    {
      "inputs": [],
      "name": "ADMIN_ROLE",
      "outputs": [
        {
          "internalType": "bytes32",
          "name": "",
          "type": "bytes32"
        }
      ],
      "stateMutability": "view",
      "type": "function"
    },
    {
      "inputs": [],
      "name": "BONUS_MULTIPLIER",
      "outputs": [
        {
          "internalType": "uint8",
          "name": "",
          "type": "uint8"
        }
      ],
      "stateMutability": "view",
      "type": "function"
    },
    {
      "inputs": [],
      "name": "FEE_PENALTY_PERCENT",
      "outputs": [
        {
          "internalType": "uint8",
          "name": "",
          "type": "uint8"
        }
      ],
      "stateMutability": "view",
      "type": "function"
    },
    {
      "inputs": [],
      "name": "MINIMUM_DAYS_LOCK",
      "outputs": [
        {
          "internalType": "uint256",
          "name": "",
          "type": "uint256"
        }
      ],
      "stateMutability": "view",
      "type": "function"
    },
    {
      "inputs": [
        {
          "internalType": "address",
          "name": "_lpToken",
          "type": "address"
        },
        {
          "internalType": "uint256",
          "name": "_allocPoint",
          "type": "uint256"
        }
      ],
      "name": "addPool",
      "outputs": [],
      "stateMutability": "nonpayable",
      "type": "function"
    },
    {
      "inputs": [],
      "name": "allowEmergencyWithdraw",
      "outputs": [
        {
          "internalType": "bool",
          "name": "",
          "type": "bool"
        }
      ],
      "stateMutability": "view",
      "type": "function"
    },
    {
      "inputs": [
        {
          "internalType": "bool",
          "name": "_status",
          "type": "bool"
        }
      ],
      "name": "changeEmergencyWithdrawStatus",
      "outputs": [],
      "stateMutability": "nonpayable",
      "type": "function"
    },
    {
      "inputs": [
        {
          "internalType": "uint256",
          "name": "_ruinPerBlock",
          "type": "uint256"
        }
      ],
      "name": "changeInterestPerBlock",
      "outputs": [],
      "stateMutability": "nonpayable",
      "type": "function"
    },
    {
      "inputs": [
        {
          "internalType": "address",
          "name": "_penaltyReceiver",
          "type": "address"
        }
      ],
      "name": "changePenaltyReceiver",
      "outputs": [],
      "stateMutability": "nonpayable",
      "type": "function"
    },
    {
      "inputs": [
        {
          "internalType": "uint256",
          "name": "_poolId",
          "type": "uint256"
        },
        {
          "internalType": "uint256",
          "name": "_amount",
          "type": "uint256"
        }
      ],
      "name": "deposit",
      "outputs": [],
      "stateMutability": "nonpayable",
      "type": "function"
    },
    {
      "inputs": [],
      "name": "dev",
      "outputs": [
        {
          "internalType": "address",
          "name": "",
          "type": "address"
        }
      ],
      "stateMutability": "view",
      "type": "function"
    },
    {
      "inputs": [
        {
          "internalType": "uint256",
          "name": "_poolId",
          "type": "uint256"
        }
      ],
      "name": "emergencyWithdraw",
      "outputs": [],
      "stateMutability": "nonpayable",
      "type": "function"
    },
    {
      "inputs": [],
      "name": "getAdminRole",
      "outputs": [
        {
          "internalType": "bytes32",
          "name": "",
          "type": "bytes32"
        }
      ],
      "stateMutability": "pure",
      "type": "function"
    },
    {
      "inputs": [
        {
          "internalType": "uint256",
          "name": "_startBlock",
          "type": "uint256"
        },
        {
          "internalType": "uint256",
          "name": "_endBlock",
          "type": "uint256"
        }
      ],
      "name": "getMultiplier",
      "outputs": [
        {
          "internalType": "uint256",
          "name": "",
          "type": "uint256"
        }
      ],
      "stateMutability": "view",
      "type": "function"
    },
    {
      "inputs": [
        {
          "internalType": "uint256",
          "name": "_poolId",
          "type": "uint256"
        }
      ],
      "name": "getPoolById",
      "outputs": [
        {
          "components": [
            {
              "internalType": "contract IERC20",
              "name": "lpToken",
              "type": "address"
            },
            {
              "internalType": "uint256",
              "name": "accRuinPerShare",
              "type": "uint256"
            },
            {
              "internalType": "uint256",
              "name": "allocPoint",
              "type": "uint256"
            },
            {
              "internalType": "uint256",
              "name": "lastRewardBlock",
              "type": "uint256"
            }
          ],
          "internalType": "struct RuinStaking.Pool",
          "name": "",
          "type": "tuple"
        }
      ],
      "stateMutability": "view",
      "type": "function"
    },
    {
      "inputs": [
        {
          "internalType": "address",
          "name": "_account",
          "type": "address"
        },
        {
          "internalType": "bytes32",
          "name": "_role",
          "type": "bytes32"
        }
      ],
      "name": "grantRole",
      "outputs": [],
      "stateMutability": "nonpayable",
      "type": "function"
    },
    {
      "inputs": [
        {
          "internalType": "uint256",
          "name": "_poolId",
          "type": "uint256"
        },
        {
          "internalType": "address",
          "name": "_to",
          "type": "address"
        }
      ],
      "name": "harvest",
      "outputs": [],
      "stateMutability": "nonpayable",
      "type": "function"
    },
    {
      "inputs": [
        {
          "internalType": "address",
          "name": "_address",
          "type": "address"
        },
        {
          "internalType": "bytes32",
          "name": "_role",
          "type": "bytes32"
        }
      ],
      "name": "hasRole",
      "outputs": [
        {
          "internalType": "bool",
          "name": "",
          "type": "bool"
        }
      ],
      "stateMutability": "view",
      "type": "function"
    },
    {
      "inputs": [],
      "name": "massUpdatePools",
      "outputs": [],
      "stateMutability": "nonpayable",
      "type": "function"
    },
    {
      "inputs": [
        {
          "internalType": "uint256",
          "name": "",
          "type": "uint256"
        },
        {
          "internalType": "address",
          "name": "",
          "type": "address"
        }
      ],
      "name": "nftClaimed",
      "outputs": [
        {
          "internalType": "bool",
          "name": "",
          "type": "bool"
        }
      ],
      "stateMutability": "view",
      "type": "function"
    },
    {
      "inputs": [],
      "name": "penaltyReceiver",
      "outputs": [
        {
          "internalType": "address",
          "name": "",
          "type": "address"
        }
      ],
      "stateMutability": "view",
      "type": "function"
    },
    {
      "inputs": [
        {
          "internalType": "address",
          "name": "_account",
          "type": "address"
        },
        {
          "internalType": "bytes32",
          "name": "_role",
          "type": "bytes32"
        }
      ],
      "name": "renounceRole",
      "outputs": [],
      "stateMutability": "nonpayable",
      "type": "function"
    },
    {
      "inputs": [
        {
          "internalType": "address",
          "name": "_account",
          "type": "address"
        },
        {
          "internalType": "bytes32",
          "name": "_role",
          "type": "bytes32"
        }
      ],
      "name": "revokeRole",
      "outputs": [],
      "stateMutability": "nonpayable",
      "type": "function"
    },
    {
      "inputs": [],
      "name": "rewardEndBlock",
      "outputs": [
        {
          "internalType": "uint256",
          "name": "",
          "type": "uint256"
        }
      ],
      "stateMutability": "view",
      "type": "function"
    },
    {
      "inputs": [],
      "name": "ruinNFT",
      "outputs": [
        {
          "internalType": "contract RuinNFT",
          "name": "",
          "type": "address"
        }
      ],
      "stateMutability": "view",
      "type": "function"
    },
    {
      "inputs": [],
      "name": "ruinPerBlock",
      "outputs": [
        {
          "internalType": "uint256",
          "name": "",
          "type": "uint256"
        }
      ],
      "stateMutability": "view",
      "type": "function"
    },
    {
      "inputs": [],
      "name": "ruinToken",
      "outputs": [
        {
          "internalType": "contract Ruin",
          "name": "",
          "type": "address"
        }
      ],
      "stateMutability": "view",
      "type": "function"
    },
    {
      "inputs": [
        {
          "internalType": "uint256",
          "name": "_poolId",
          "type": "uint256"
        },
        {
          "internalType": "uint256",
          "name": "_allocPoint",
          "type": "uint256"
        },
        {
          "internalType": "bool",
          "name": "_withUpdate",
          "type": "bool"
        }
      ],
      "name": "set",
      "outputs": [],
      "stateMutability": "nonpayable",
      "type": "function"
    },
    {
      "inputs": [],
      "name": "startBlock",
      "outputs": [
        {
          "internalType": "uint256",
          "name": "",
          "type": "uint256"
        }
      ],
      "stateMutability": "view",
      "type": "function"
    },
    {
      "inputs": [
        {
          "internalType": "uint256",
          "name": "_poolId",
          "type": "uint256"
        }
      ],
      "name": "take",
      "outputs": [
        {
          "internalType": "uint256",
          "name": "",
          "type": "uint256"
        }
      ],
      "stateMutability": "view",
      "type": "function"
    },
    {
      "inputs": [
        {
          "internalType": "uint256",
          "name": "_poolId",
          "type": "uint256"
        }
      ],
      "name": "takeWithBlock",
      "outputs": [
        {
          "internalType": "uint256",
          "name": "",
          "type": "uint256"
        },
        {
          "internalType": "uint256",
          "name": "",
          "type": "uint256"
        }
      ],
      "stateMutability": "view",
      "type": "function"
    },
    {
      "inputs": [],
      "name": "totalAllocPoint",
      "outputs": [
        {
          "internalType": "uint256",
          "name": "",
          "type": "uint256"
        }
      ],
      "stateMutability": "view",
      "type": "function"
    },
    {
      "inputs": [
        {
          "internalType": "uint256",
          "name": "_poolId",
          "type": "uint256"
        }
      ],
      "name": "updateSinglePool",
      "outputs": [],
      "stateMutability": "nonpayable",
      "type": "function"
    },
    {
      "inputs": [
        {
          "internalType": "uint256",
          "name": "",
          "type": "uint256"
        },
        {
          "internalType": "address",
          "name": "",
          "type": "address"
        }
      ],
      "name": "userInfos",
      "outputs": [
        {
          "internalType": "uint256",
          "name": "amount",
          "type": "uint256"
        },
        {
          "internalType": "uint256",
          "name": "rewardDebt",
          "type": "uint256"
        },
        {
          "internalType": "uint256",
          "name": "rewardAmount",
          "type": "uint256"
        },
        {
          "internalType": "uint256",
          "name": "lastTimeDeposited",
          "type": "uint256"
        }
      ],
      "stateMutability": "view",
      "type": "function"
    },
    {
      "inputs": [
        {
          "internalType": "uint256",
          "name": "_poolId",
          "type": "uint256"
        },
        {
          "internalType": "uint256",
          "name": "_amount",
          "type": "uint256"
        }
      ],
      "name": "withdraw",
      "outputs": [],
      "stateMutability": "nonpayable",
      "type": "function"
    }
  ],
  "transactionHash": "0xd2e86ccf1bce1c3eeda10c75ecd1b6a6144ad352cbfd9548f697c65e51ecd46e",
  "args": [
    "0xa96f57",
    11105087,
    "10000000000000000000",
    "0xdD0077BdE65A349a135d84146dBaB73fFe5F4423",
    "0x73964F6F211D5a8428322EDFbDfEc72FF76D9fCd",
    "0x73964F6F211D5a8428322EDFbDfEc72FF76D9fCd",
    "0x44726BC8aeBc8d0bA70f8065475175E3490D4D87"
  ],
  "solcInputHash": "b46710b60aed01cf0799440c32531957",
  "bytecode": "0x60806040523480156200001157600080fd5b50604051620028c8380380620028c8833981016040819052620000349162000199565b600387905560048690556001859055600880546001600160a01b038087166001600160a01b03199283161790925560058054868416908316179055600680548584169083161790556007805492841692909116919091179055620000ab6200009b620000b8565b620000a5620000bc565b620000c1565b50505050505050620002a2565b3390565b600090565b620000cd8282620000d1565b5050565b620000dd828262000171565b15620001065760405162461bcd60e51b8152600401620000fd9062000238565b60405180910390fd5b6000818152602081815260408083206001600160a01b038616845290915290819020805460ff19166001179055517fa7303245a59ff2ac54e2fe5528bb42911d3e6b94b05e43bc614aae7bccf514f3906200016590849084906200021f565b60405180910390a15050565b6000908152602081815260408083206001600160a01b03949094168352929052205460ff1690565b600080600080600080600060e0888a031215620001b4578283fd5b8751965060208801519550604088015194506060880151620001d68162000289565b6080890151909450620001e98162000289565b60a0890151909350620001fc8162000289565b60c08901519092506200020f8162000289565b8091505092959891949750929550565b6001600160a01b03929092168252602082015260400190565b60208082526031908201527f416363657373436f6e74726f6c3a3a5573657220616c7265616479206772616e60408201527074656420666f72207468697320726f6c6560781b606082015260800190565b6001600160a01b03811681146200029f57600080fd5b50565b61261680620002b26000396000f3fe608060405234801561001057600080fd5b50600436106102415760003560e01c80638aa2855011610145578063b5437deb116100bd578063e1b7fd421161008c578063e5db8ee411610071578063e5db8ee414610481578063f3c3437d14610489578063f9d161971461049c57610241565b8063e1b7fd4214610466578063e2bbb1581461046e57610241565b8063b5437deb14610425578063b8661ef11461042d578063bb93449c14610440578063c6b4ff8c1461045357610241565b8063ab2742dc11610114578063ac4ab3fb116100f9578063ac4ab3fb14610402578063b3ecf23614610415578063b42e93c31461041d57610241565b8063ab2742dc146103dc578063ab4aa0e3146103ef57610241565b80638aa28550146103995780638dbb1e3a146103a157806391cca3db146103b4578063a01a46ae146103c957610241565b806348cd4cb1116101d8578063630b5ba1116101a75780636700f51f1161018c5780636700f51f1461035957806375b238fc1461036e578063873708461461037657610241565b8063630b5ba11461033e57806364482f791461034657610241565b806348cd4cb1146103085780634fd9efc4146103105780635312ea8e14610323578063604ef2e51461033657610241565b8063208dd1ff11610214578063208dd1ff146102ae57806332a9caba146102c15780633638cc2b146102d4578063441a3e70146102f557610241565b80630bc59b381461024657806317caf6f11461026f57806318fccc76146102845780631a26af7a14610299575b600080fd5b610259610254366004611d34565b6104a4565b604051610266919061247d565b60405180910390f35b61027761051f565b6040516102669190611e86565b610297610292366004611d64565b610525565b005b6102a1610713565b6040516102669190611e7b565b6102976102bc366004611cc1565b610723565b6102976102cf366004611cea565b610771565b6102e76102e2366004611d34565b610913565b6040516102669291906124b1565b610297610303366004611d8f565b610933565b610277610a50565b61027761031e366004611d34565b610a56565b610297610331366004611d34565b610a6a565b610277610b79565b610297610b7f565b610297610354366004611db0565b610baa565b610361610c89565b60405161026691906124f9565b610277610c8e565b610389610384366004611d64565b610c93565b60405161026694939291906124de565b610361610cc5565b6102776103af366004611d8f565b610cca565b6103bc610d31565b6040516102669190611e04565b6102976103d7366004611cfc565b610d40565b6102976103ea366004611cc1565b610e20565b6102976103fd366004611d34565b610e69565b6102a1610410366004611cc1565b610e75565b610277610e9d565b610277610ea2565b610277610ea9565b61029761043b366004611d34565b610eaf565b6102a161044e366004611d64565b610f45565b610297610461366004611ca7565b610f65565b6103bc611056565b61029761047c366004611d8f565b611065565b6103bc611134565b610297610497366004611cc1565b611143565b6103bc611175565b6104ac611c5f565b600982815481106104cd57634e487b7160e01b600052603260045260246000fd5b600091825260209182902060408051608081018252600490930290910180546001600160a01b03168352600181015493830193909352600283015490820152600390910154606082015290505b919050565b60025481565b600954829081106105515760405162461bcd60e51b815260040161054890611f56565b60405180910390fd5b60006105648461055f611184565b611188565b915050610570846111e9565b6105818461057c611184565b611430565b60008160020154116105a55760405162461bcd60e51b815260040161054890612218565b60028101546105b484826114bc565b600060028301819055858152600b60205260408120906105d2611184565b6001600160a01b0316815260208101919091526040016000205460ff1615801561060e57506003820154429061060b906203f480611655565b11155b156106d1576007546040517f6a6278420000000000000000000000000000000000000000000000000000000081526001600160a01b0390911690636a6278429061065c908790600401611e04565b600060405180830381600087803b15801561067657600080fd5b505af115801561068a573d6000803e3d6000fd5b5050506000868152600b6020526040812060019250906106a8611184565b6001600160a01b031681526020810191909152604001600020805460ff19169115159190911790555b7f9166d4c7daeb3a7f47e63fb23683a9ea09c5a6817e3f7ea503ed3046d824f821858286604051610704939291906124bf565b60405180910390a15050505050565b600854600160a01b900460ff1681565b61072b610e9d565b60008181526020818152604080832033845290915290205460ff166107625760405162461bcd60e51b815260040161054890612047565b61076c8383611684565b505050565b610779610e9d565b60008181526020818152604080832033845290915290205460ff166107b05760405162461bcd60e51b815260040161054890612047565b600060035443116107c3576003546107c5565b435b604080516080810182526001600160a01b0387811682526000602083018181529383018881526060840186815260098054600181018255935293517f6e1540171b6c0c960b71a7020d9f60077f6af931a8bbf590da0223dacf75c7af6004909302928301805473ffffffffffffffffffffffffffffffffffffffff1916919094161790925592517f6e1540171b6c0c960b71a7020d9f60077f6af931a8bbf590da0223dacf75c7b0840155517f6e1540171b6c0c960b71a7020d9f60077f6af931a8bbf590da0223dacf75c7b1830155517f6e1540171b6c0c960b71a7020d9f60077f6af931a8bbf590da0223dacf75c7b2909101556002549091506108cb9084611655565b6002556040517fc8e774967d7f45e5814dbb800335ed47014999568397f08e79b0f322047f743f9061090590869086906000908690611e55565b60405180910390a150505050565b600080600061092984610924611184565b611704565b9443945092505050565b600954829081106109565760405162461bcd60e51b815260040161054890611f56565b6000806109658561055f611184565b8054919350915084111561098b5760405162461bcd60e51b8152600401610548906122ac565b610994856111e9565b6109a08561057c611184565b80546109ac9085611874565b815560038101546000906109c19086906118b6565b83546006549192506109e0916001600160a01b039182169116836118e5565b8254610a06906001600160a01b03166109f7611184565b610a018885611874565b6118e5565b7f8bea6ccf46ca1b9a9897df3f744fff481abc52c14a5326a91f863df485197c2186610a328784611874565b604051610a409291906124b1565b60405180910390a1505050505050565b60035481565b6000610a6482610924611184565b92915050565b600854600160a01b900460ff16610a935760405162461bcd60e51b815260040161054890612420565b600080610aa28361055f611184565b80548254929450909250906001600160a01b031663a9059cbb610ac3611184565b836040518363ffffffff1660e01b8152600401610ae1929190611e3c565b602060405180830381600087803b158015610afb57600080fd5b505af1158015610b0f573d6000803e3d6000fd5b505050506040513d601f19601f82011682018060405250810190610b339190611d18565b5060006001830181905582557ff1bf0184075d5cc740b8173d750406ed6db5230aa1102b49c64817ab2b25834e8482610b6a611184565b604051610905939291906124bf565b60045481565b60095460005b81811015610ba657610b96816111e9565b610b9f816125a1565b9050610b85565b5050565b610bb2610e9d565b60008181526020818152604080832033845290915290205460ff16610be95760405162461bcd60e51b815260040161054890612047565b8115610bf757610bf7610b7f565b600060098581548110610c1a57634e487b7160e01b600052603260045260246000fd5b90600052602060002090600402019050610c4d84610c47836002015460025461187490919063ffffffff16565b90611655565b600290815581018490556040517ff6a102007cff3930941b5c41a14ec38e49eb721e7c658ad18d3543a0038715ce9061070490879087906124b1565b600381565b600081565b600a60209081526000928352604080842090915290825290208054600182015460028301546003909301549192909184565b600a81565b60006004548211610cf157610cea600a610ce48486611874565b906119e7565b9050610a64565b6004548310610d0457610cea8284611874565b600454610d2a90610d1c90600a90610ce49087611874565b600454610c47908590611874565b9392505050565b6005546001600160a01b031681565b610d48610e9d565b60008181526020818152604080832033845290915290205460ff16610d7f5760405162461bcd60e51b815260040161054890612047565b600860149054906101000a900460ff1615158215151415610db25760405162461bcd60e51b815260040161054890612309565b600880547fffffffffffffffffffffff00ffffffffffffffffffffffffffffffffffffffff16600160a01b841515021790556040517f67e513cdf55f99c0f5e55b7c6a9d9e5b56d05fa971a32aa542e2480d93f0a50b90610e14908490611e7b565b60405180910390a15050565b610e28610e9d565b60008181526020818152604080832033845290915290205460ff16610e5f5760405162461bcd60e51b815260040161054890612047565b61076c8383611a2c565b610e72816111e9565b50565b6000908152602081815260408083206001600160a01b03949094168352929052205460ff1690565b600090565b6203f48081565b60015481565b610eb7610e9d565b60008181526020818152604080832033845290915290205460ff16610eee5760405162461bcd60e51b815260040161054890612047565b600154821415610f105760405162461bcd60e51b8152600401610548906123c3565b60018290556040517f390a5b01eb7e457530be94b6cf354bced069f5a7b2ededc55cfed8347abc95e390610e14908490611e86565b600b60209081526000928352604080842090915290825290205460ff1681565b610f6d610e9d565b60008181526020818152604080832033845290915290205460ff16610fa45760405162461bcd60e51b815260040161054890612047565b6001600160a01b038216610fca5760405162461bcd60e51b815260040161054890611ec2565b6006546001600160a01b0383811691161415610ff85760405162461bcd60e51b815260040161054890612101565b6006805473ffffffffffffffffffffffffffffffffffffffff19166001600160a01b0384811691909117918290556040517f7585fa0cc560aae6c197dd2a37f0bd3e312f42e2b7dd0b9e787f1631971048b492610e14921690611e04565b6006546001600160a01b031681565b600954829081106110885760405162461bcd60e51b815260040161054890611f56565b600082116110a85760405162461bcd60e51b8152600401610548906120a4565b6000806110b78561055f611184565b915091506110c4856111e9565b6110d08561057c611184565b81546110ee906001600160a01b03166110e7611184565b3087611ab0565b80546110fa9085611655565b81554260038201556040517fd2383b25817be617acdbc61653d6f13901e8981bcf7a6d109a48e1fce98017749061070490879087906124b1565b6008546001600160a01b031681565b6001600160a01b038216331461116b5760405162461bcd60e51b815260040161054890611fea565b610ba63382611684565b6007546001600160a01b031681565b3390565b6000806000600985815481106111ae57634e487b7160e01b600052603260045260246000fd5b60009182526020808320888452600a825260408085206001600160a01b038a1686529092529220600490910290910193509150509250929050565b60006009828154811061120c57634e487b7160e01b600052603260045260246000fd5b906000526020600020906004020190508060030154431161122d5750610e72565b80546040516370a0823160e01b81526000916001600160a01b0316906370a082319061125d903090600401611e04565b60206040518083038186803b15801561127557600080fd5b505afa158015611289573d6000803e3d6000fd5b505050506040513d601f19601f820116820180604052508101906112ad9190611d4c565b9050806112c1575043600390910155610e72565b60006112d1836003015443610cca565b905060006112fe6002546112f88660020154610ce4600154876119e790919063ffffffff16565b90611bb5565b6008546005549192506001600160a01b03908116916340c10f19911661132584600a611bb5565b6040518363ffffffff1660e01b8152600401611342929190611e3c565b600060405180830381600087803b15801561135c57600080fd5b505af1158015611370573d6000803e3d6000fd5b50506008546040517f40c10f190000000000000000000000000000000000000000000000000000000081526001600160a01b0390911692506340c10f1991506113bf9030908590600401611e3c565b600060405180830381600087803b1580156113d957600080fd5b505af11580156113ed573d6000803e3d6000fd5b5050505061141b611410846112f864e8d4a51000856119e790919063ffffffff16565b600186015490611655565b60018501555050436003909201919091555050565b60008061143d8484611188565b80549193509150156114b657600061147d826001015461147764e8d4a510006112f8876001015487600001546119e790919063ffffffff16565b90611874565b600283015490915061148f9082611655565b6002830155600183015482546114af9164e8d4a51000916112f8916119e7565b6001830155505b50505050565b6008546040516370a0823160e01b81526000916001600160a01b0316906370a08231906114ed903090600401611e04565b60206040518083038186803b15801561150557600080fd5b505afa158015611519573d6000803e3d6000fd5b505050506040513d601f19601f8201168201806040525081019061153d9190611d4c565b9050808211156115d15760085460405163a9059cbb60e01b81526001600160a01b039091169063a9059cbb906115799086908590600401611e3c565b602060405180830381600087803b15801561159357600080fd5b505af11580156115a7573d6000803e3d6000fd5b505050506040513d601f19601f820116820180604052508101906115cb9190611d18565b5061076c565b60085460405163a9059cbb60e01b81526001600160a01b039091169063a9059cbb906116039086908690600401611e3c565b602060405180830381600087803b15801561161d57600080fd5b505af1158015611631573d6000803e3d6000fd5b505050506040513d601f19601f820116820180604052508101906114b69190611d18565b6000806116628385612507565b905083811015610d2a5760405162461bcd60e51b815260040161054890611fb3565b61168e8282610e75565b6116aa5760405162461bcd60e51b81526004016105489061224f565b6000818152602081815260408083206001600160a01b038616845290915290819020805460ff19169055517fd2a4c0c5ce589dd4d53ba3b322ec9e98736a0476cec2f1a1515835650bca3b9d90610e149084908490611e3c565b6009546000908390811061172a5760405162461bcd60e51b815260040161054890611f56565b6000806117378686611188565b600182015482546040516370a0823160e01b8152939550919350916000916001600160a01b0316906370a0823190611773903090600401611e04565b60206040518083038186803b15801561178b57600080fd5b505afa15801561179f573d6000803e3d6000fd5b505050506040513d601f19601f820116820180604052508101906117c39190611d4c565b90506000811180156117d85750836003015443115b156118385760006117ed856003015443610cca565b905060006118146002546112f88860020154610ce4600154876119e790919063ffffffff16565b905061183361182c846112f88464e8d4a510006119e7565b8590611655565b935050505b6118688360020154610c47856001015461147764e8d4a510006112f8888a600001546119e790919063ffffffff16565b98975050505050505050565b6000610d2a83836040518060400160405280601e81526020017f536166654d6174683a207375627472616374696f6e206f766572666c6f770000815250611bf7565b60006118c5826203f480611655565b4210156118dc57610cea60646112f88560036119e7565b50600092915050565b600080846001600160a01b031663a9059cbb858560405160240161190a929190611e3c565b6040516020818303038152906040529060e01b6020820180517bffffffffffffffffffffffffffffffffffffffffffffffffffffffff83818316178352505050506040516119589190611de8565b6000604051808303816000865af19150503d8060008114611995576040519150601f19603f3d011682016040523d82523d6000602084013e61199a565b606091505b50915091508180156119c45750805115806119c45750808060200190518101906119c49190611d18565b6119e05760405162461bcd60e51b815260040161054890611f1f565b5050505050565b6000826119f657506000610a64565b6000611a02838561253f565b905082611a0f858361251f565b14610d2a5760405162461bcd60e51b8152600401610548906121bb565b611a368282610e75565b15611a535760405162461bcd60e51b81526004016105489061215e565b6000818152602081815260408083206001600160a01b038616845290915290819020805460ff19166001179055517fa7303245a59ff2ac54e2fe5528bb42911d3e6b94b05e43bc614aae7bccf514f390610e149084908490611e3c565b600080856001600160a01b03166323b872dd868686604051602401611ad793929190611e18565b6040516020818303038152906040529060e01b6020820180517bffffffffffffffffffffffffffffffffffffffffffffffffffffffff8381831617835250505050604051611b259190611de8565b6000604051808303816000865af19150503d8060008114611b62576040519150601f19603f3d011682016040523d82523d6000602084013e611b67565b606091505b5091509150818015611b91575080511580611b91575080806020019051810190611b919190611d18565b611bad5760405162461bcd60e51b815260040161054890612366565b505050505050565b6000610d2a83836040518060400160405280601a81526020017f536166654d6174683a206469766973696f6e206279207a65726f000000000000815250611c31565b60008184841115611c1b5760405162461bcd60e51b81526004016105489190611e8f565b506000611c28848661255e565b95945050505050565b60008183611c525760405162461bcd60e51b81526004016105489190611e8f565b506000611c28848661251f565b604051806080016040528060006001600160a01b031681526020016000815260200160008152602001600081525090565b80356001600160a01b038116811461051a57600080fd5b600060208284031215611cb8578081fd5b610d2a82611c90565b60008060408385031215611cd3578081fd5b611cdc83611c90565b946020939093013593505050565b60008060408385031215611cd3578182fd5b600060208284031215611d0d578081fd5b8135610d2a816125d2565b600060208284031215611d29578081fd5b8151610d2a816125d2565b600060208284031215611d45578081fd5b5035919050565b600060208284031215611d5d578081fd5b5051919050565b60008060408385031215611d76578182fd5b82359150611d8660208401611c90565b90509250929050565b60008060408385031215611da1578182fd5b50508035926020909101359150565b600080600060608486031215611dc4578081fd5b83359250602084013591506040840135611ddd816125d2565b809150509250925092565b60008251611dfa818460208701612575565b9190910192915050565b6001600160a01b0391909116815260200190565b6001600160a01b039384168152919092166020820152604081019190915260600190565b6001600160a01b03929092168252602082015260400190565b6001600160a01b0394909416845260208401929092526040830152606082015260800190565b901515815260200190565b90815260200190565b6000602082528251806020840152611eae816040850160208701612575565b601f01601f19169190910160400192915050565b60208082526028908201527f5275696e5374616b696e673a3a50656e616c747920526563656976657220697360408201527f20696c6c6567616c000000000000000000000000000000000000000000000000606082015260800190565b6020808252601f908201527f5472616e7366657248656c7065723a205452414e534645525f4641494c454400604082015260600190565b60208082526022908201527f5275696e5374616b696e673a3a506f6f6c206964206973206e6f74206c65676960408201527f7421000000000000000000000000000000000000000000000000000000000000606082015260800190565b6020808252601b908201527f536166654d6174683a206164646974696f6e206f766572666c6f770000000000604082015260600190565b60208082526033908201527f416363657373436f6e74726f6c3a3a596f752063616e206f6e6c792072656e6f60408201527f756e636520726f6c657320666f722073656c6600000000000000000000000000606082015260800190565b6020808252602f908201527f416363657373436f6e74726f6c3a3a596f757220726f6c65206973206e6f742060408201527f61626c6520746f20646f20746869730000000000000000000000000000000000606082015260800190565b60208082526032908201527f5275696e5374616b696e673a3a4c5020546f6b656e20616d6f756e742064657060408201527f6f736974206973206e6f74206c65676974210000000000000000000000000000606082015260800190565b6020808252602a908201527f5275696e5374616b696e673a3a50656e616c747920526563656976657220697360408201527f206964656e746963616c00000000000000000000000000000000000000000000606082015260800190565b60208082526031908201527f416363657373436f6e74726f6c3a3a5573657220616c7265616479206772616e60408201527f74656420666f72207468697320726f6c65000000000000000000000000000000606082015260800190565b60208082526021908201527f536166654d6174683a206d756c7469706c69636174696f6e206f766572666c6f60408201527f7700000000000000000000000000000000000000000000000000000000000000606082015260800190565b6020808252601f908201527f5275696e5374616b696e673a3a4e4f5448494e4720544f204841525645535400604082015260600190565b60208082526031908201527f416363657373436f6e74726f6c3a3a55736572206e6f74206772616e7465642060408201527f666f72207468697320726f6c6520796574000000000000000000000000000000606082015260800190565b60208082526033908201527f5275696e5374616b696e673a3a4c5020546f6b656e20616d6f756e742077697460408201527f6864726177206973206e6f74206c656769742100000000000000000000000000606082015260800190565b60208082526034908201527f5275696e5374616b696e673a3a456d657267656e63792077697468647261772060408201527f737461747573206973206964656e746963616c21000000000000000000000000606082015260800190565b60208082526024908201527f5472616e7366657248656c7065723a205452414e534645525f46524f4d5f464160408201527f494c454400000000000000000000000000000000000000000000000000000000606082015260800190565b60208082526028908201527f5275696e5374616b696e673a3a5275696e2070657220626c6f636b206973206960408201527f64656e746963616c000000000000000000000000000000000000000000000000606082015260800190565b6020808252602c908201527f5275696e5374616b696e673a3a4e4f5420414c4c4f5720544f20454d4552474560408201527f4e43592057495448445241570000000000000000000000000000000000000000606082015260800190565b81516001600160a01b0316815260208083015190820152604080830151908201526060918201519181019190915260800190565b918252602082015260400190565b92835260208301919091526001600160a01b0316604082015260600190565b93845260208401929092526040830152606082015260800190565b60ff91909116815260200190565b6000821982111561251a5761251a6125bc565b500190565b60008261253a57634e487b7160e01b81526012600452602481fd5b500490565b6000816000190483118215151615612559576125596125bc565b500290565b600082821015612570576125706125bc565b500390565b60005b83811015612590578181015183820152602001612578565b838111156114b65750506000910152565b60006000198214156125b5576125b56125bc565b5060010190565b634e487b7160e01b600052601160045260246000fd5b8015158114610e7257600080fdfea26469706673582212206a5141c6668c020271385921a75aacef281b791790600e66103f944f8da5bdce64736f6c63430008000033",
  "devdoc": {
    "kind": "dev",
    "methods": {},
    "version": 1
  },
  "userdoc": {
    "kind": "user",
    "methods": {},
    "version": 1
  },
  "storageLayout": {
    "storage": [
      {
        "astId": 1243,
        "contract": "contracts/RuinStaking.sol:RuinStaking",
        "label": "roles",
        "offset": 0,
        "slot": "0",
        "type": "t_mapping(t_bytes32,t_mapping(t_address,t_bool))"
      },
      {
        "astId": 18,
        "contract": "contracts/RuinStaking.sol:RuinStaking",
        "label": "ruinPerBlock",
        "offset": 0,
        "slot": "1",
        "type": "t_uint256"
      },
      {
        "astId": 20,
        "contract": "contracts/RuinStaking.sol:RuinStaking",
        "label": "totalAllocPoint",
        "offset": 0,
        "slot": "2",
        "type": "t_uint256"
      },
      {
        "astId": 22,
        "contract": "contracts/RuinStaking.sol:RuinStaking",
        "label": "startBlock",
        "offset": 0,
        "slot": "3",
        "type": "t_uint256"
      },
      {
        "astId": 24,
        "contract": "contracts/RuinStaking.sol:RuinStaking",
        "label": "rewardEndBlock",
        "offset": 0,
        "slot": "4",
        "type": "t_uint256"
      },
      {
        "astId": 29,
        "contract": "contracts/RuinStaking.sol:RuinStaking",
        "label": "dev",
        "offset": 0,
        "slot": "5",
        "type": "t_address"
      },
      {
        "astId": 31,
        "contract": "contracts/RuinStaking.sol:RuinStaking",
        "label": "penaltyReceiver",
        "offset": 0,
        "slot": "6",
        "type": "t_address"
      },
      {
        "astId": 34,
        "contract": "contracts/RuinStaking.sol:RuinStaking",
        "label": "ruinNFT",
        "offset": 0,
        "slot": "7",
        "type": "t_contract(RuinNFT)3555"
      },
      {
        "astId": 37,
        "contract": "contracts/RuinStaking.sol:RuinStaking",
        "label": "ruinToken",
        "offset": 0,
        "slot": "8",
        "type": "t_contract(Ruin)2587"
      },
      {
        "astId": 45,
        "contract": "contracts/RuinStaking.sol:RuinStaking",
        "label": "allowEmergencyWithdraw",
        "offset": 20,
        "slot": "8",
        "type": "t_bool"
      },
      {
        "astId": 68,
        "contract": "contracts/RuinStaking.sol:RuinStaking",
        "label": "pools",
        "offset": 0,
        "slot": "9",
        "type": "t_array(t_struct(Pool)64_storage)dyn_storage"
      },
      {
        "astId": 75,
        "contract": "contracts/RuinStaking.sol:RuinStaking",
        "label": "userInfos",
        "offset": 0,
        "slot": "10",
        "type": "t_mapping(t_uint256,t_mapping(t_address,t_struct(UserInfo)54_storage))"
      },
      {
        "astId": 81,
        "contract": "contracts/RuinStaking.sol:RuinStaking",
        "label": "nftClaimed",
        "offset": 0,
        "slot": "11",
        "type": "t_mapping(t_uint256,t_mapping(t_address,t_bool))"
      }
    ],
    "types": {
      "t_address": {
        "encoding": "inplace",
        "label": "address",
        "numberOfBytes": "20"
      },
      "t_array(t_struct(Pool)64_storage)dyn_storage": {
        "base": "t_struct(Pool)64_storage",
        "encoding": "dynamic_array",
        "label": "struct RuinStaking.Pool[]",
        "numberOfBytes": "32"
      },
      "t_bool": {
        "encoding": "inplace",
        "label": "bool",
        "numberOfBytes": "1"
      },
      "t_bytes32": {
        "encoding": "inplace",
        "label": "bytes32",
        "numberOfBytes": "32"
      },
      "t_contract(IERC20)1520": {
        "encoding": "inplace",
        "label": "contract IERC20",
        "numberOfBytes": "20"
      },
      "t_contract(Ruin)2587": {
        "encoding": "inplace",
        "label": "contract Ruin",
        "numberOfBytes": "20"
      },
      "t_contract(RuinNFT)3555": {
        "encoding": "inplace",
        "label": "contract RuinNFT",
        "numberOfBytes": "20"
      },
      "t_mapping(t_address,t_bool)": {
        "encoding": "mapping",
        "key": "t_address",
        "label": "mapping(address => bool)",
        "numberOfBytes": "32",
        "value": "t_bool"
      },
      "t_mapping(t_address,t_struct(UserInfo)54_storage)": {
        "encoding": "mapping",
        "key": "t_address",
        "label": "mapping(address => struct RuinStaking.UserInfo)",
        "numberOfBytes": "32",
        "value": "t_struct(UserInfo)54_storage"
      },
      "t_mapping(t_bytes32,t_mapping(t_address,t_bool))": {
        "encoding": "mapping",
        "key": "t_bytes32",
        "label": "mapping(bytes32 => mapping(address => bool))",
        "numberOfBytes": "32",
        "value": "t_mapping(t_address,t_bool)"
      },
      "t_mapping(t_uint256,t_mapping(t_address,t_bool))": {
        "encoding": "mapping",
        "key": "t_uint256",
        "label": "mapping(uint256 => mapping(address => bool))",
        "numberOfBytes": "32",
        "value": "t_mapping(t_address,t_bool)"
      },
      "t_mapping(t_uint256,t_mapping(t_address,t_struct(UserInfo)54_storage))": {
        "encoding": "mapping",
        "key": "t_uint256",
        "label": "mapping(uint256 => mapping(address => struct RuinStaking.UserInfo))",
        "numberOfBytes": "32",
        "value": "t_mapping(t_address,t_struct(UserInfo)54_storage)"
      },
      "t_struct(Pool)64_storage": {
        "encoding": "inplace",
        "label": "struct RuinStaking.Pool",
        "members": [
          {
            "astId": 57,
            "contract": "contracts/RuinStaking.sol:RuinStaking",
            "label": "lpToken",
            "offset": 0,
            "slot": "0",
            "type": "t_contract(IERC20)1520"
          },
          {
            "astId": 59,
            "contract": "contracts/RuinStaking.sol:RuinStaking",
            "label": "accRuinPerShare",
            "offset": 0,
            "slot": "1",
            "type": "t_uint256"
          },
          {
            "astId": 61,
            "contract": "contracts/RuinStaking.sol:RuinStaking",
            "label": "allocPoint",
            "offset": 0,
            "slot": "2",
            "type": "t_uint256"
          },
          {
            "astId": 63,
            "contract": "contracts/RuinStaking.sol:RuinStaking",
            "label": "lastRewardBlock",
            "offset": 0,
            "slot": "3",
            "type": "t_uint256"
          }
        ],
        "numberOfBytes": "128"
      },
      "t_struct(UserInfo)54_storage": {
        "encoding": "inplace",
        "label": "struct RuinStaking.UserInfo",
        "members": [
          {
            "astId": 47,
            "contract": "contracts/RuinStaking.sol:RuinStaking",
            "label": "amount",
            "offset": 0,
            "slot": "0",
            "type": "t_uint256"
          },
          {
            "astId": 49,
            "contract": "contracts/RuinStaking.sol:RuinStaking",
            "label": "rewardDebt",
            "offset": 0,
            "slot": "1",
            "type": "t_uint256"
          },
          {
            "astId": 51,
            "contract": "contracts/RuinStaking.sol:RuinStaking",
            "label": "rewardAmount",
            "offset": 0,
            "slot": "2",
            "type": "t_uint256"
          },
          {
            "astId": 53,
            "contract": "contracts/RuinStaking.sol:RuinStaking",
            "label": "lastTimeDeposited",
            "offset": 0,
            "slot": "3",
            "type": "t_uint256"
          }
        ],
        "numberOfBytes": "128"
      },
      "t_uint256": {
        "encoding": "inplace",
        "label": "uint256",
        "numberOfBytes": "32"
      }
    }
  }
}