{
  "address": "0x5B9702D7643186018d1590Aa89E56767702355b4",
  "abi": [
    {
      "inputs": [],
      "stateMutability": "nonpayable",
      "type": "constructor"
    },
    {
      "anonymous": false,
      "inputs": [
        {
          "indexed": true,
          "internalType": "address",
          "name": "owner",
          "type": "address"
        },
        {
          "indexed": true,
          "internalType": "address",
          "name": "approved",
          "type": "address"
        },
        {
          "indexed": true,
          "internalType": "uint256",
          "name": "tokenId",
          "type": "uint256"
        }
      ],
      "name": "Approval",
      "type": "event"
    },
    {
      "anonymous": false,
      "inputs": [
        {
          "indexed": true,
          "internalType": "address",
          "name": "owner",
          "type": "address"
        },
        {
          "indexed": true,
          "internalType": "address",
          "name": "operator",
          "type": "address"
        },
        {
          "indexed": false,
          "internalType": "bool",
          "name": "approved",
          "type": "bool"
        }
      ],
      "name": "ApprovalForAll",
      "type": "event"
    },
    {
      "anonymous": false,
      "inputs": [
        {
          "indexed": false,
          "internalType": "address",
          "name": "account",
          "type": "address"
        },
        {
          "indexed": false,
          "internalType": "bytes32",
          "name": "role",
          "type": "bytes32"
        }
      ],
      "name": "GrantRole",
      "type": "event"
    },
    {
      "anonymous": false,
      "inputs": [
        {
          "indexed": false,
          "internalType": "address",
          "name": "account",
          "type": "address"
        },
        {
          "indexed": false,
          "internalType": "bytes32",
          "name": "role",
          "type": "bytes32"
        }
      ],
      "name": "RenounceRole",
      "type": "event"
    },
    {
      "anonymous": false,
      "inputs": [
        {
          "indexed": false,
          "internalType": "address",
          "name": "account",
          "type": "address"
        },
        {
          "indexed": false,
          "internalType": "bytes32",
          "name": "role",
          "type": "bytes32"
        }
      ],
      "name": "RevokeRole",
      "type": "event"
    },
    {
      "anonymous": false,
      "inputs": [
        {
          "indexed": true,
          "internalType": "address",
          "name": "from",
          "type": "address"
        },
        {
          "indexed": true,
          "internalType": "address",
          "name": "to",
          "type": "address"
        },
        {
          "indexed": true,
          "internalType": "uint256",
          "name": "tokenId",
          "type": "uint256"
        }
      ],
      "name": "Transfer",
      "type": "event"
    },
    {
      "inputs": [],
      "name": "ADMIN_ROLE",
      "outputs": [
        {
          "internalType": "bytes32",
          "name": "",
          "type": "bytes32"
        }
      ],
      "stateMutability": "view",
      "type": "function"
    },
    {
      "inputs": [],
      "name": "BURNER_ROLE",
      "outputs": [
        {
          "internalType": "bytes32",
          "name": "",
          "type": "bytes32"
        }
      ],
      "stateMutability": "view",
      "type": "function"
    },
    {
      "inputs": [],
      "name": "MINTER_ROLE",
      "outputs": [
        {
          "internalType": "bytes32",
          "name": "",
          "type": "bytes32"
        }
      ],
      "stateMutability": "view",
      "type": "function"
    },
    {
      "inputs": [
        {
          "internalType": "address",
          "name": "to",
          "type": "address"
        },
        {
          "internalType": "uint256",
          "name": "tokenId",
          "type": "uint256"
        }
      ],
      "name": "approve",
      "outputs": [],
      "stateMutability": "nonpayable",
      "type": "function"
    },
    {
      "inputs": [
        {
          "internalType": "address",
          "name": "owner",
          "type": "address"
        }
      ],
      "name": "balanceOf",
      "outputs": [
        {
          "internalType": "uint256",
          "name": "",
          "type": "uint256"
        }
      ],
      "stateMutability": "view",
      "type": "function"
    },
    {
      "inputs": [],
      "name": "baseTokenURI",
      "outputs": [
        {
          "internalType": "string",
          "name": "",
          "type": "string"
        }
      ],
      "stateMutability": "pure",
      "type": "function"
    },
    {
      "inputs": [
        {
          "internalType": "uint256",
          "name": "tokenId",
          "type": "uint256"
        }
      ],
      "name": "burn",
      "outputs": [],
      "stateMutability": "nonpayable",
      "type": "function"
    },
    {
      "inputs": [],
      "name": "getAdminRole",
      "outputs": [
        {
          "internalType": "bytes32",
          "name": "",
          "type": "bytes32"
        }
      ],
      "stateMutability": "pure",
      "type": "function"
    },
    {
      "inputs": [
        {
          "internalType": "uint256",
          "name": "tokenId",
          "type": "uint256"
        }
      ],
      "name": "getApproved",
      "outputs": [
        {
          "internalType": "address",
          "name": "",
          "type": "address"
        }
      ],
      "stateMutability": "view",
      "type": "function"
    },
    {
      "inputs": [
        {
          "internalType": "address",
          "name": "_account",
          "type": "address"
        },
        {
          "internalType": "bytes32",
          "name": "_role",
          "type": "bytes32"
        }
      ],
      "name": "grantRole",
      "outputs": [],
      "stateMutability": "nonpayable",
      "type": "function"
    },
    {
      "inputs": [
        {
          "internalType": "address",
          "name": "_address",
          "type": "address"
        },
        {
          "internalType": "bytes32",
          "name": "_role",
          "type": "bytes32"
        }
      ],
      "name": "hasRole",
      "outputs": [
        {
          "internalType": "bool",
          "name": "",
          "type": "bool"
        }
      ],
      "stateMutability": "view",
      "type": "function"
    },
    {
      "inputs": [
        {
          "internalType": "address",
          "name": "owner",
          "type": "address"
        },
        {
          "internalType": "address",
          "name": "operator",
          "type": "address"
        }
      ],
      "name": "isApprovedForAll",
      "outputs": [
        {
          "internalType": "bool",
          "name": "",
          "type": "bool"
        }
      ],
      "stateMutability": "view",
      "type": "function"
    },
    {
      "inputs": [
        {
          "internalType": "address",
          "name": "to",
          "type": "address"
        }
      ],
      "name": "mint",
      "outputs": [],
      "stateMutability": "nonpayable",
      "type": "function"
    },
    {
      "inputs": [],
      "name": "name",
      "outputs": [
        {
          "internalType": "string",
          "name": "",
          "type": "string"
        }
      ],
      "stateMutability": "view",
      "type": "function"
    },
    {
      "inputs": [
        {
          "internalType": "uint256",
          "name": "tokenId",
          "type": "uint256"
        }
      ],
      "name": "ownerOf",
      "outputs": [
        {
          "internalType": "address",
          "name": "",
          "type": "address"
        }
      ],
      "stateMutability": "view",
      "type": "function"
    },
    {
      "inputs": [
        {
          "internalType": "address",
          "name": "_account",
          "type": "address"
        },
        {
          "internalType": "bytes32",
          "name": "_role",
          "type": "bytes32"
        }
      ],
      "name": "renounceRole",
      "outputs": [],
      "stateMutability": "nonpayable",
      "type": "function"
    },
    {
      "inputs": [
        {
          "internalType": "address",
          "name": "_account",
          "type": "address"
        },
        {
          "internalType": "bytes32",
          "name": "_role",
          "type": "bytes32"
        }
      ],
      "name": "revokeRole",
      "outputs": [],
      "stateMutability": "nonpayable",
      "type": "function"
    },
    {
      "inputs": [
        {
          "internalType": "address",
          "name": "from",
          "type": "address"
        },
        {
          "internalType": "address",
          "name": "to",
          "type": "address"
        },
        {
          "internalType": "uint256",
          "name": "tokenId",
          "type": "uint256"
        }
      ],
      "name": "safeTransferFrom",
      "outputs": [],
      "stateMutability": "nonpayable",
      "type": "function"
    },
    {
      "inputs": [
        {
          "internalType": "address",
          "name": "from",
          "type": "address"
        },
        {
          "internalType": "address",
          "name": "to",
          "type": "address"
        },
        {
          "internalType": "uint256",
          "name": "tokenId",
          "type": "uint256"
        },
        {
          "internalType": "bytes",
          "name": "_data",
          "type": "bytes"
        }
      ],
      "name": "safeTransferFrom",
      "outputs": [],
      "stateMutability": "nonpayable",
      "type": "function"
    },
    {
      "inputs": [
        {
          "internalType": "address",
          "name": "operator",
          "type": "address"
        },
        {
          "internalType": "bool",
          "name": "approved",
          "type": "bool"
        }
      ],
      "name": "setApprovalForAll",
      "outputs": [],
      "stateMutability": "nonpayable",
      "type": "function"
    },
    {
      "inputs": [
        {
          "internalType": "bytes4",
          "name": "interfaceId",
          "type": "bytes4"
        }
      ],
      "name": "supportsInterface",
      "outputs": [
        {
          "internalType": "bool",
          "name": "",
          "type": "bool"
        }
      ],
      "stateMutability": "view",
      "type": "function"
    },
    {
      "inputs": [],
      "name": "symbol",
      "outputs": [
        {
          "internalType": "string",
          "name": "",
          "type": "string"
        }
      ],
      "stateMutability": "view",
      "type": "function"
    },
    {
      "inputs": [
        {
          "internalType": "uint256",
          "name": "tokenId",
          "type": "uint256"
        }
      ],
      "name": "tokenURI",
      "outputs": [
        {
          "internalType": "string",
          "name": "",
          "type": "string"
        }
      ],
      "stateMutability": "view",
      "type": "function"
    },
    {
      "inputs": [
        {
          "internalType": "address",
          "name": "from",
          "type": "address"
        },
        {
          "internalType": "address",
          "name": "to",
          "type": "address"
        },
        {
          "internalType": "uint256",
          "name": "tokenId",
          "type": "uint256"
        }
      ],
      "name": "transferFrom",
      "outputs": [],
      "stateMutability": "nonpayable",
      "type": "function"
    }
  ],
  "transactionHash": "0xbe197831b4d6c6baf6fcc68eaed676d90c42de0914754c861f1a73881ef16cc1",
  "args": [],
  "solcInputHash": "1ea6a005893ae7d0cdf52a03a4500069",
  "bytecode": "0x60806040523480156200001157600080fd5b506040805180820182526008815267149d5a5b8813919560c21b60208083019182528351808501909452600684526514955253915160d21b908401528151919291620000609160019162000184565b5080516200007690600290602084019062000184565b5050506200009d6200008d620000a360201b60201c565b62000097620000a7565b620000ac565b620002d1565b3390565b600090565b620000b88282620000bc565b5050565b620000c882826200015c565b15620000f15760405162461bcd60e51b8152600401620000e89062000243565b60405180910390fd5b6000818152602081815260408083206001600160a01b038616845290915290819020805460ff19166001179055517fa7303245a59ff2ac54e2fe5528bb42911d3e6b94b05e43bc614aae7bccf514f3906200015090849084906200022a565b60405180910390a15050565b6000908152602081815260408083206001600160a01b03949094168352929052205460ff1690565b828054620001929062000294565b90600052602060002090601f016020900481019282620001b6576000855562000201565b82601f10620001d157805160ff191683800117855562000201565b8280016001018555821562000201579182015b8281111562000201578251825591602001919060010190620001e4565b506200020f92915062000213565b5090565b5b808211156200020f576000815560010162000214565b6001600160a01b03929092168252602082015260400190565b60208082526031908201527f416363657373436f6e74726f6c3a3a5573657220616c7265616479206772616e60408201527074656420666f72207468697320726f6c6560781b606082015260800190565b600281046001821680620002a957607f821691505b60208210811415620002cb57634e487b7160e01b600052602260045260246000fd5b50919050565b611cef80620002e16000396000f3fe608060405234801561001057600080fd5b50600436106101985760003560e01c806375b238fc116100e3578063b88d4fde1161008c578063d547cfb711610066578063d547cfb714610329578063e985e9c514610331578063f3c3437d1461034457610198565b8063b88d4fde146102fb578063c87b56dd1461030e578063d53913931461032157610198565b8063ab2742dc116100bd578063ab2742dc146102cd578063ac4ab3fb146102e0578063b3ecf236146102f357610198565b806375b238fc146102aa57806395d89b41146102b2578063a22cb465146102ba57610198565b8063282c51f3116101455780636352211e1161011f5780636352211e146102715780636a6278421461028457806370a082311461029757610198565b8063282c51f31461023657806342842e0e1461024b57806342966c681461025e57610198565b8063095ea7b311610176578063095ea7b3146101fb578063208dd1ff1461021057806323b872dd1461022357610198565b806301ffc9a71461019d57806306fdde03146101c6578063081812fc146101db575b600080fd5b6101b06101ab366004611404565b610357565b6040516101bd919061156a565b60405180910390f35b6101ce6103d1565b6040516101bd919061157e565b6101ee6101e936600461143c565b610463565b6040516101bd9190611501565b61020e6102093660046113db565b6104af565b005b61020e61021e3660046113db565b610547565b61020e61023136600461129a565b610590565b61023e6105c8565b6040516101bd9190611575565b61020e61025936600461129a565b6105f0565b61020e61026c36600461143c565b61060b565b6101ee61027f36600461143c565b610672565b61020e61029236600461124e565b6106a7565b61023e6102a536600461124e565b61071e565b61023e610762565b6101ce610767565b61020e6102c83660046113a1565b610776565b61020e6102db3660046113db565b610844565b6101b06102ee3660046113db565b61088d565b61023e6108b5565b61020e6103093660046112d5565b6108ba565b6101ce61031c36600461143c565b6108f9565b61023e61097c565b6101ce61098b565b6101b061033f366004611268565b61099a565b61020e6103523660046113db565b6109c8565b60006001600160e01b031982167f80ac58cd0000000000000000000000000000000000000000000000000000000014806103ba57506001600160e01b031982167f5b5e139f00000000000000000000000000000000000000000000000000000000145b806103c957506103c9826109fa565b90505b919050565b6060600180546103e090611bf4565b80601f016020809104026020016040519081016040528092919081815260200182805461040c90611bf4565b80156104595780601f1061042e57610100808354040283529160200191610459565b820191906000526020600020905b81548152906001019060200180831161043c57829003601f168201915b5050505050905090565b600061046e82610a2c565b6104935760405162461bcd60e51b815260040161048a90611968565b60405180910390fd5b506000908152600560205260409020546001600160a01b031690565b60006104ba82610672565b9050806001600160a01b0316836001600160a01b031614156104ee5760405162461bcd60e51b815260040161048a90611acb565b806001600160a01b0316610500610a49565b6001600160a01b0316148061051c575061051c8161033f610a49565b6105385760405162461bcd60e51b815260040161048a906117bf565b6105428383610a4d565b505050565b61054f6108b5565b60008181526020818152604080832033845290915290205460ff166105865760405162461bcd60e51b815260040161048a90611716565b6105428383610ac8565b6105a161059b610a49565b82610b54565b6105bd5760405162461bcd60e51b815260040161048a90611b28565b610542838383610bd9565b6040516020016105d7906114af565b6040516020818303038152906040528051906020012081565b610542838383604051806020016040528060008152506108ba565b60405160200161061a906114af565b60408051601f198184030181529181528151602092830120600081815280845282812033825290935291205460ff166106655760405162461bcd60e51b815260040161048a90611716565b61066e82610d13565b5050565b6000818152600360205260408120546001600160a01b0316806103c95760405162461bcd60e51b815260040161048a90611879565b6040516020016106b6906114d8565b60408051601f198184030181529181528151602092830120600081815280845282812033825290935291205460ff166107015760405162461bcd60e51b815260040161048a90611716565b61070b6007610dc7565b61066e826107196007610dd0565b610dd4565b60006001600160a01b0382166107465760405162461bcd60e51b815260040161048a9061181c565b506001600160a01b031660009081526004602052604090205490565b600081565b6060600280546103e090611bf4565b61077e610a49565b6001600160a01b0316826001600160a01b031614156107af5760405162461bcd60e51b815260040161048a906116df565b80600660006107bc610a49565b6001600160a01b03908116825260208083019390935260409182016000908120918716808252919093529120805460ff191692151592909217909155610800610a49565b6001600160a01b03167f17307eab39ab6107e8899845ad3d59bd9653f200f220920489ca2b5937696c3183604051610838919061156a565b60405180910390a35050565b61084c6108b5565b60008181526020818152604080832033845290915290205460ff166108835760405162461bcd60e51b815260040161048a90611716565b6105428383610ec0565b6000908152602081815260408083206001600160a01b03949094168352929052205460ff1690565b600090565b6108cb6108c5610a49565b83610b54565b6108e75760405162461bcd60e51b815260040161048a90611b28565b6108f384848484610f44565b50505050565b606061090482610a2c565b6109205760405162461bcd60e51b815260040161048a90611a11565b600061092a610f77565b9050600081511161094a5760405180602001604052806000815250610975565b8061095484610fae565b604051602001610965929190611480565b6040516020818303038152906040525b9392505050565b6040516020016105d7906114d8565b6060610995610f77565b905090565b6001600160a01b03918216600090815260066020908152604080832093909416825291909152205460ff1690565b6001600160a01b03821633146109f05760405162461bcd60e51b815260040161048a90611625565b61066e3382610ac8565b6001600160e01b031981167f01ffc9a70000000000000000000000000000000000000000000000000000000014919050565b6000908152600360205260409020546001600160a01b0316151590565b3390565b6000818152600560205260409020805473ffffffffffffffffffffffffffffffffffffffff19166001600160a01b0384169081179091558190610a8f82610672565b6001600160a01b03167f8c5be1e5ebec7d5bd14f71427d1e84f3dd0314c0f7b2291e5b200ac8c7c3b92560405160405180910390a45050565b610ad2828261088d565b610aee5760405162461bcd60e51b815260040161048a90611a6e565b6000818152602081815260408083206001600160a01b038616845290915290819020805460ff19169055517fd2a4c0c5ce589dd4d53ba3b322ec9e98736a0476cec2f1a1515835650bca3b9d90610b489084908490611551565b60405180910390a15050565b6000610b5f82610a2c565b610b7b5760405162461bcd60e51b815260040161048a90611773565b6000610b8683610672565b9050806001600160a01b0316846001600160a01b03161480610bc15750836001600160a01b0316610bb684610463565b6001600160a01b0316145b80610bd15750610bd1818561099a565b949350505050565b826001600160a01b0316610bec82610672565b6001600160a01b031614610c125760405162461bcd60e51b815260040161048a906119b4565b6001600160a01b038216610c385760405162461bcd60e51b815260040161048a90611682565b610c43838383610542565b610c4e600082610a4d565b6001600160a01b0383166000908152600460205260408120805460019290610c77908490611bb1565b90915550506001600160a01b0382166000908152600460205260408120805460019290610ca5908490611b85565b9091555050600081815260036020526040808220805473ffffffffffffffffffffffffffffffffffffffff19166001600160a01b0386811691821790925591518493918716917fddf252ad1be2c89b69c2b068fc378daa952ba7f163c4a11628f55a4df523b3ef91a4505050565b6000610d1e82610672565b9050610d2c81600084610542565b610d37600083610a4d565b6001600160a01b0381166000908152600460205260408120805460019290610d60908490611bb1565b9091555050600082815260036020526040808220805473ffffffffffffffffffffffffffffffffffffffff19169055518391906001600160a01b038416907fddf252ad1be2c89b69c2b068fc378daa952ba7f163c4a11628f55a4df523b3ef908390a45050565b80546001019055565b5490565b6001600160a01b038216610dfa5760405162461bcd60e51b815260040161048a906118d6565b610e0381610a2c565b15610e205760405162461bcd60e51b815260040161048a906115ee565b610e2c60008383610542565b6001600160a01b0382166000908152600460205260408120805460019290610e55908490611b85565b9091555050600081815260036020526040808220805473ffffffffffffffffffffffffffffffffffffffff19166001600160a01b03861690811790915590518392907fddf252ad1be2c89b69c2b068fc378daa952ba7f163c4a11628f55a4df523b3ef908290a45050565b610eca828261088d565b15610ee75760405162461bcd60e51b815260040161048a9061190b565b6000818152602081815260408083206001600160a01b038616845290915290819020805460ff19166001179055517fa7303245a59ff2ac54e2fe5528bb42911d3e6b94b05e43bc614aae7bccf514f390610b489084908490611551565b610f4f848484610bd9565b610f5b848484846110fd565b6108f35760405162461bcd60e51b815260040161048a90611591565b60408051808201909152601f81527f68747470733a2f2f6e66742e736f746174656b2e636f6d2f746f6b656e732f00602082015290565b606081610fef575060408051808201909152600181527f300000000000000000000000000000000000000000000000000000000000000060208201526103cc565b8160005b8115611019578061100381611c2f565b91506110129050600a83611b9d565b9150610ff3565b60008167ffffffffffffffff81111561104257634e487b7160e01b600052604160045260246000fd5b6040519080825280601f01601f19166020018201604052801561106c576020820181803683370190505b5090505b8415610bd157611081600183611bb1565b915061108e600a86611c4a565b611099906030611b85565b60f81b8183815181106110bc57634e487b7160e01b600052603260045260246000fd5b60200101907effffffffffffffffffffffffffffffffffffffffffffffffffffffffffffff1916908160001a9053506110f6600a86611b9d565b9450611070565b6000611111846001600160a01b0316611231565b1561122657836001600160a01b031663150b7a0261112d610a49565b8786866040518563ffffffff1660e01b815260040161114f9493929190611515565b602060405180830381600087803b15801561116957600080fd5b505af1925050508015611199575060408051601f3d908101601f1916820190925261119691810190611420565b60015b6111f3573d8080156111c7576040519150601f19603f3d011682016040523d82523d6000602084013e6111cc565b606091505b5080516111eb5760405162461bcd60e51b815260040161048a90611591565b805181602001fd5b6001600160e01b0319167f150b7a0200000000000000000000000000000000000000000000000000000000149050610bd1565b506001949350505050565b3b151590565b80356001600160a01b03811681146103cc57600080fd5b60006020828403121561125f578081fd5b61097582611237565b6000806040838503121561127a578081fd5b61128383611237565b915061129160208401611237565b90509250929050565b6000806000606084860312156112ae578081fd5b6112b784611237565b92506112c560208501611237565b9150604084013590509250925092565b600080600080608085870312156112ea578081fd5b6112f385611237565b93506020611302818701611237565b935060408601359250606086013567ffffffffffffffff80821115611325578384fd5b818801915088601f830112611338578384fd5b81358181111561134a5761134a611c8a565b604051601f8201601f191681018501838111828210171561136d5761136d611c8a565b60405281815283820185018b1015611383578586fd5b81858501868301379081019093019390935250939692955090935050565b600080604083850312156113b3578182fd5b6113bc83611237565b9150602083013580151581146113d0578182fd5b809150509250929050565b600080604083850312156113ed578182fd5b6113f683611237565b946020939093013593505050565b600060208284031215611415578081fd5b813561097581611ca0565b600060208284031215611431578081fd5b815161097581611ca0565b60006020828403121561144d578081fd5b5035919050565b6000815180845261146c816020860160208601611bc8565b601f01601f19169290920160200192915050565b60008351611492818460208801611bc8565b8351908301906114a6818360208801611bc8565b01949350505050565b7f4255524e45525f524f4c450000000000000000000000000000000000000000008152600b0190565b7f4d494e5445525f524f4c450000000000000000000000000000000000000000008152600b0190565b6001600160a01b0391909116815260200190565b60006001600160a01b038087168352808616602084015250836040830152608060608301526115476080830184611454565b9695505050505050565b6001600160a01b03929092168252602082015260400190565b901515815260200190565b90815260200190565b6000602082526109756020830184611454565b60208082526032908201527f4552433732313a207472616e7366657220746f206e6f6e20455243373231526560408201527f63656976657220696d706c656d656e7465720000000000000000000000000000606082015260800190565b6020808252601c908201527f4552433732313a20746f6b656e20616c7265616479206d696e74656400000000604082015260600190565b60208082526033908201527f416363657373436f6e74726f6c3a3a596f752063616e206f6e6c792072656e6f60408201527f756e636520726f6c657320666f722073656c6600000000000000000000000000606082015260800190565b60208082526024908201527f4552433732313a207472616e7366657220746f20746865207a65726f2061646460408201527f7265737300000000000000000000000000000000000000000000000000000000606082015260800190565b60208082526019908201527f4552433732313a20617070726f766520746f2063616c6c657200000000000000604082015260600190565b6020808252602f908201527f416363657373436f6e74726f6c3a3a596f757220726f6c65206973206e6f742060408201527f61626c6520746f20646f20746869730000000000000000000000000000000000606082015260800190565b6020808252602c908201527f4552433732313a206f70657261746f7220717565727920666f72206e6f6e657860408201526b34b9ba32b73a103a37b5b2b760a11b606082015260800190565b60208082526038908201527f4552433732313a20617070726f76652063616c6c6572206973206e6f74206f7760408201527f6e6572206e6f7220617070726f76656420666f7220616c6c0000000000000000606082015260800190565b6020808252602a908201527f4552433732313a2062616c616e636520717565727920666f7220746865207a6560408201527f726f206164647265737300000000000000000000000000000000000000000000606082015260800190565b60208082526029908201527f4552433732313a206f776e657220717565727920666f72206e6f6e657869737460408201527f656e7420746f6b656e0000000000000000000000000000000000000000000000606082015260800190565b6020808252818101527f4552433732313a206d696e7420746f20746865207a65726f2061646472657373604082015260600190565b60208082526031908201527f416363657373436f6e74726f6c3a3a5573657220616c7265616479206772616e60408201527f74656420666f72207468697320726f6c65000000000000000000000000000000606082015260800190565b6020808252602c908201527f4552433732313a20617070726f76656420717565727920666f72206e6f6e657860408201526b34b9ba32b73a103a37b5b2b760a11b606082015260800190565b60208082526029908201527f4552433732313a207472616e73666572206f6620746f6b656e2074686174206960408201527f73206e6f74206f776e0000000000000000000000000000000000000000000000606082015260800190565b6020808252602f908201527f4552433732314d657461646174613a2055524920717565727920666f72206e6f60408201527f6e6578697374656e7420746f6b656e0000000000000000000000000000000000606082015260800190565b60208082526031908201527f416363657373436f6e74726f6c3a3a55736572206e6f74206772616e7465642060408201527f666f72207468697320726f6c6520796574000000000000000000000000000000606082015260800190565b60208082526021908201527f4552433732313a20617070726f76616c20746f2063757272656e74206f776e6560408201527f7200000000000000000000000000000000000000000000000000000000000000606082015260800190565b60208082526031908201527f4552433732313a207472616e736665722063616c6c6572206973206e6f74206f60408201527f776e6572206e6f7220617070726f766564000000000000000000000000000000606082015260800190565b60008219821115611b9857611b98611c5e565b500190565b600082611bac57611bac611c74565b500490565b600082821015611bc357611bc3611c5e565b500390565b60005b83811015611be3578181015183820152602001611bcb565b838111156108f35750506000910152565b600281046001821680611c0857607f821691505b60208210811415611c2957634e487b7160e01b600052602260045260246000fd5b50919050565b6000600019821415611c4357611c43611c5e565b5060010190565b600082611c5957611c59611c74565b500690565b634e487b7160e01b600052601160045260246000fd5b634e487b7160e01b600052601260045260246000fd5b634e487b7160e01b600052604160045260246000fd5b6001600160e01b031981168114611cb657600080fd5b5056fea26469706673582212206c56746573b2931cf5c68176438f9fa7fc49db375b2a85c1fcda3a41d5ec5fc864736f6c63430008000033",
  "devdoc": {
    "kind": "dev",
    "methods": {
      "approve(address,uint256)": {
        "details": "See {IERC721-approve}."
      },
      "balanceOf(address)": {
        "details": "See {IERC721-balanceOf}."
      },
      "getApproved(uint256)": {
        "details": "See {IERC721-getApproved}."
      },
      "isApprovedForAll(address,address)": {
        "details": "See {IERC721-isApprovedForAll}."
      },
      "name()": {
        "details": "See {IERC721Metadata-name}."
      },
      "ownerOf(uint256)": {
        "details": "See {IERC721-ownerOf}."
      },
      "safeTransferFrom(address,address,uint256)": {
        "details": "See {IERC721-safeTransferFrom}."
      },
      "safeTransferFrom(address,address,uint256,bytes)": {
        "details": "See {IERC721-safeTransferFrom}."
      },
      "setApprovalForAll(address,bool)": {
        "details": "See {IERC721-setApprovalForAll}."
      },
      "supportsInterface(bytes4)": {
        "details": "See {IERC165-supportsInterface}."
      },
      "symbol()": {
        "details": "See {IERC721Metadata-symbol}."
      },
      "tokenURI(uint256)": {
        "details": "See {IERC721Metadata-tokenURI}."
      },
      "transferFrom(address,address,uint256)": {
        "details": "See {IERC721-transferFrom}."
      }
    },
    "version": 1
  },
  "userdoc": {
    "kind": "user",
    "methods": {},
    "version": 1
  },
  "storageLayout": {
    "storage": [
      {
        "astId": 1009,
        "contract": "contracts/tokens/ERC721/RuinNFT.sol:RuinNFT",
        "label": "roles",
        "offset": 0,
        "slot": "0",
        "type": "t_mapping(t_bytes32,t_mapping(t_address,t_bool))"
      },
      {
        "astId": 2431,
        "contract": "contracts/tokens/ERC721/RuinNFT.sol:RuinNFT",
        "label": "_name",
        "offset": 0,
        "slot": "1",
        "type": "t_string_storage"
      },
      {
        "astId": 2433,
        "contract": "contracts/tokens/ERC721/RuinNFT.sol:RuinNFT",
        "label": "_symbol",
        "offset": 0,
        "slot": "2",
        "type": "t_string_storage"
      },
      {
        "astId": 2437,
        "contract": "contracts/tokens/ERC721/RuinNFT.sol:RuinNFT",
        "label": "_owners",
        "offset": 0,
        "slot": "3",
        "type": "t_mapping(t_uint256,t_address)"
      },
      {
        "astId": 2441,
        "contract": "contracts/tokens/ERC721/RuinNFT.sol:RuinNFT",
        "label": "_balances",
        "offset": 0,
        "slot": "4",
        "type": "t_mapping(t_address,t_uint256)"
      },
      {
        "astId": 2445,
        "contract": "contracts/tokens/ERC721/RuinNFT.sol:RuinNFT",
        "label": "_tokenApprovals",
        "offset": 0,
        "slot": "5",
        "type": "t_mapping(t_uint256,t_address)"
      },
      {
        "astId": 2451,
        "contract": "contracts/tokens/ERC721/RuinNFT.sol:RuinNFT",
        "label": "_operatorApprovals",
        "offset": 0,
        "slot": "6",
        "type": "t_mapping(t_address,t_mapping(t_address,t_bool))"
      },
      {
        "astId": 3253,
        "contract": "contracts/tokens/ERC721/RuinNFT.sol:RuinNFT",
        "label": "currentTokenId",
        "offset": 0,
        "slot": "7",
        "type": "t_struct(Counter)3637_storage"
      }
    ],
    "types": {
      "t_address": {
        "encoding": "inplace",
        "label": "address",
        "numberOfBytes": "20"
      },
      "t_bool": {
        "encoding": "inplace",
        "label": "bool",
        "numberOfBytes": "1"
      },
      "t_bytes32": {
        "encoding": "inplace",
        "label": "bytes32",
        "numberOfBytes": "32"
      },
      "t_mapping(t_address,t_bool)": {
        "encoding": "mapping",
        "key": "t_address",
        "label": "mapping(address => bool)",
        "numberOfBytes": "32",
        "value": "t_bool"
      },
      "t_mapping(t_address,t_mapping(t_address,t_bool))": {
        "encoding": "mapping",
        "key": "t_address",
        "label": "mapping(address => mapping(address => bool))",
        "numberOfBytes": "32",
        "value": "t_mapping(t_address,t_bool)"
      },
      "t_mapping(t_address,t_uint256)": {
        "encoding": "mapping",
        "key": "t_address",
        "label": "mapping(address => uint256)",
        "numberOfBytes": "32",
        "value": "t_uint256"
      },
      "t_mapping(t_bytes32,t_mapping(t_address,t_bool))": {
        "encoding": "mapping",
        "key": "t_bytes32",
        "label": "mapping(bytes32 => mapping(address => bool))",
        "numberOfBytes": "32",
        "value": "t_mapping(t_address,t_bool)"
      },
      "t_mapping(t_uint256,t_address)": {
        "encoding": "mapping",
        "key": "t_uint256",
        "label": "mapping(uint256 => address)",
        "numberOfBytes": "32",
        "value": "t_address"
      },
      "t_string_storage": {
        "encoding": "bytes",
        "label": "string",
        "numberOfBytes": "32"
      },
      "t_struct(Counter)3637_storage": {
        "encoding": "inplace",
        "label": "struct Counters.Counter",
        "members": [
          {
            "astId": 3636,
            "contract": "contracts/tokens/ERC721/RuinNFT.sol:RuinNFT",
            "label": "_value",
            "offset": 0,
            "slot": "0",
            "type": "t_uint256"
          }
        ],
        "numberOfBytes": "32"
      },
      "t_uint256": {
        "encoding": "inplace",
        "label": "uint256",
        "numberOfBytes": "32"
      }
    }
  }
}